{
  "_format": "hh-sol-artifact-1",
  "contractName": "BatchTransfer",
  "sourceName": "contracts/BatchTransfer.huff",
  "abi": [
    {
      "inputs": [
        {
          "internalType": "address",
          "name": "token",
          "type": "address"
        },
        {
          "internalType": "uint256",
          "name": "total",
          "type": "uint256"
        },
        {
          "internalType": "address[]",
          "name": "recipients",
          "type": "address[]"
        },
        {
          "internalType": "uint256[]",
          "name": "amounts",
          "type": "uint256[]"
        }
      ],
      "name": "batchTransferERC20",
      "outputs": [],
      "stateMutability": "nonpayable",
      "type": "function"
    },
    {
      "inputs": [
        {
          "internalType": "address[]",
          "name": "recipients",
          "type": "address[]"
        },
        {
          "internalType": "uint256[]",
          "name": "amounts",
          "type": "uint256[]"
        }
      ],
      "name": "batchTransferETH",
      "outputs": [],
      "stateMutability": "payable",
      "type": "function"
    }
  ],
  "bytecode": "61010980600a3d393df35f3560e01c8063ae4edb2c1461001e578063a0ce91d8146100be575f5ffd5b600435602435306323b872dd5f52336020528060405281606052602060606064601c5f875af13d156060516001141716610056575f80fd5b60443560040180356064356004018035828114610071575f80fd5b600163a9059cbb5f525b8181116100bc578481602002013560205282816020020135604052602060606044601c5f8c5af13d1560605160011417166100b4575f80fd5b60010161007b565b005b600435600401803560243560040180358281146100d9575f80fd5b60015b818111610107575f80808086856020020135898660200201355af16100ff575f80fd5b6001016100dc565b00",
  "linkReferences": {},
  "deployedLinkReferences": {}
}